:100000000C942A000C9434000C9434000C943400AA
:100010000C9434000C9434000C9434000C94340090
:100020000C9434000C9434000C9434000C94340080
:100030000C9434000C9434000C9434000C94340070
:100040000C9434000C9434000C9434000C94340060
:100050000C94340011241FBECFE5D8E0DEBFCDBF25
:100060000E94CA040C94DD040C940000DF93CF932B
:1000700000D000D0CDB7DEB789836A838981282F6D
:1000800030E03C832B838B819C8181309105D1F0C2
:100090002B813C81223031052CF48B819C8100978F
:1000A00061F01EC02B813C812230310581F08B81B3
:1000B0009C818330910581F013C0EAE3F0E08A81EE
:1000C00080830EC0E7E3F0E08A81808309C0E4E327
:1000D000F0E08A81808304C0E1E3F0E08A818083DC
:1000E0000F900F900F900F90CF91DF910895DF93B5
:1000F000CF9300D000D00F92CDB7DEB789836A834B
:100100004B838981282F30E03D832C836C817D8156
:1001100061307105D1F18C819D818230910534F47B
:100120002C813D812115310571F094C06C817D8158
:100130006230710509F44BC08C819D81833091053B
:1001400009F467C087C0AAE3B0E0EAE3F0E0808189
:10015000482F8A81282F30E081E090E002C0880F8C
:10016000991F2A95E2F7809548238B81282F30E04C
:100170008A81882F90E0B90102C0660F771F8A95A7
:10018000E2F7CB01842B8C9365C0A7E3B0E0E7E3F3
:10019000F0E08081482F8A81282F30E081E090E0D4
:1001A00002C0880F991F2A95E2F7809548238B811A
:1001B000282F30E08A81882F90E0B90102C0660FB5
:1001C000771F8A95E2F7CB01842B8C9343C0A4E37D
:1001D000B0E0E4E3F0E08081482F8A81282F30E00E
:1001E00081E090E002C0880F991F2A95E2F7809580
:1001F00048238B81282F30E08A81882F90E0B90135
:1002000002C0660F771F8A95E2F7CB01842B8C938F
:1002100021C0A1E3B0E0E1E3F0E08081482F8A81D2
:10022000282F30E081E090E002C0880F991F2A95C6
:10023000E2F7809548238B81282F30E08A81882F30
:1002400090E0B90102C0660F771F8A95E2F7CB01F3
:10025000842B8C930F900F900F900F900F90CF9155
:10026000DF910895DF93CF9300D000D0CDB7DEB7F4
:1002700089836A838981282F30E03C832B838B819B
:100280009C8181309105D1F02B813C812230310558
:100290002CF48B819C81009761F01EC02B813C81E6
:1002A0002230310581F08B819C818330910581F072
:1002B00013C0EBE3F0E08A8180830EC0E8E3F0E056
:1002C0008A81808309C0E5E3F0E08A81808304C0ED
:1002D000E2E3F0E08A8180830F900F900F900F90FF
:1002E000CF91DF910895DF93CF9300D000D00F928C
:1002F000CDB7DEB789836A834B838981282F30E0AD
:100300003D832C836C817D8161307105D1F18C81BD
:100310009D818230910534F42C813D812115310578
:1003200071F094C06C817D816230710509F44BC01D
:100330008C819D818330910509F467C087C0ABE350
:10034000B0E0EBE3F0E08081482F8A81282F30E095
:1003500081E090E002C0880F991F2A95E2F780950E
:1003600048238B81282F30E08A81882F90E0B901C3
:1003700002C0660F771F8A95E2F7CB01842B8C931E
:1003800065C0A8E3B0E0E8E3F0E08081482F8A810F
:10039000282F30E081E090E002C0880F991F2A9555
:1003A000E2F7809548238B81282F30E08A81882FBF
:1003B00090E0B90102C0660F771F8A95E2F7CB0182
:1003C000842B8C9343C0A8E3B0E0E8E3F0E08081A5
:1003D000482F8A81282F30E081E090E002C0880F0A
:1003E000991F2A95E2F7809548238B81282F30E0CA
:1003F0008A81882F90E0B90102C0660F771F8A9525
:10040000E2F7CB01842B8C9321C0A8E3B0E0E8E3B2
:10041000F0E08081482F8A81282F30E081E090E051
:1004200002C0880F991F2A95E2F7809548238B8197
:10043000282F30E08A81882F90E0B90102C0660F32
:10044000771F8A95E2F7CB01842B8C930F900F9046
:100450000F900F900F90CF91DF910895DF93CF937E
:1004600000D000D00F92CDB7DEB789837B836A833B
:100470008981282F30E03D832C838C819D818130C0
:100480009105E1F02C813D81223031052CF48C81E5
:100490009D81009761F026C02C813D81223031057D
:1004A000A1F08C819D8183309105B1F01BC0E9E3FF
:1004B000F0E08081EA81FB81808314C0E6E3F0E014
:1004C0008081EA81FB8180830DC0E3E3F0E08081DD
:1004D000EA81FB81808306C0E0E3F0E08081EA816D
:1004E000FB8180830F900F900F900F900F90CF9112
:1004F000DF910895DF93CF9300D000D000D0CDB727
:10050000DEB789836A835C834B838981282F30E03F
:100510003E832D834D815E814130510559F18D819E
:100520009E818230910534F42D813E812115310563
:1005300069F05BC04D815E814230510579F18D815A
:100540009E818330910509F43DC04FC0E9E3F0E09E
:100550008081282F30E08A81882F90E0A90102C095
:10056000559547958A95E2F7CA018170EB81FC8128
:1005700080833BC0E6E3F0E08081282F30E08A8171
:10058000882F90E0A90102C0559547958A95E2F71A
:10059000CA018170EB81FC81808327C0E3E3F0E036
:1005A0008081282F30E08A81882F90E0A90102C045
:1005B000559547958A95E2F7CA018170EB81FC81D8
:1005C000808313C0E0E3F0E08081282F30E08A814F
:1005D000882F90E0A90102C0559547958A95E2F7CA
:1005E000CA018170EB81FC81808326960FB6F89456
:1005F000DEBF0FBECDBFCF91DF910895DF93CF93C4
:1006000000D000D0CDB7DEB789836A838981282FD7
:1006100030E03C832B838B819C8181309105D1F02C
:100620002B813C81223031052CF48B819C810097F9
:1006300061F01EC02B813C812230310581F08B811D
:100640009C818330910581F013C0EBE3F0E08A8157
:1006500080830EC0E8E3F0E08A81808309C0E5E38F
:10066000F0E08A81808304C0E2E3F0E08A81808345
:100670000F900F900F900F90CF91DF910895DF931F
:10068000CF9300D000D00F92CDB7DEB789836A83B5
:100690004B838981282F30E03D832C836C817D81C1
:1006A00061307105D1F18C819D818230910534F4E6
:1006B0002C813D812115310571F094C06C817D81C3
:1006C0006230710509F44BC08C819D8183309105A6
:1006D00009F467C087C0ABE3B0E0EBE3F0E08081F2
:1006E000482F8A81282F30E081E090E002C0880FF7
:1006F000991F2A95E2F7809548238B81282F30E0B7
:100700008A81882F90E0B90102C0660F771F8A9511
:10071000E2F7CB01842B8C9365C0A8E3B0E0E8E35B
:10072000F0E08081482F8A81282F30E081E090E03E
:1007300002C0880F991F2A95E2F7809548238B8184
:10074000282F30E08A81882F90E0B90102C0660F1F
:10075000771F8A95E2F7CB01842B8C9343C0A8E3E3
:10076000B0E0E8E3F0E08081482F8A81282F30E074
:1007700081E090E002C0880F991F2A95E2F78095EA
:1007800048238B81282F30E08A81882F90E0B9019F
:1007900002C0660F771F8A95E2F7CB01842B8C93FA
:1007A00021C0A8E3B0E0E8E3F0E08081482F8A812F
:1007B000282F30E081E090E002C0880F991F2A9531
:1007C000E2F7809548238B81282F30E08A81882F9B
:1007D00090E0B90102C0660F771F8A95E2F7CB015E
:1007E000842B8C930F900F900F900F900F90CF91C0
:1007F000DF910895DF93CF93CDB7DEB7A7E3B0E0E5
:10080000E7E3F0E0808180628C93A7E3B0E0E7E368
:10081000F0E080818F7B8C93A7E3B0E0E7E3F0E02A
:10082000808180688C93A7E3B0E0E7E3F0E080810B
:1008300080618C93EDE2F0E083E58083CF91DF91DE
:100840000895DF93CF930F92CDB7DEB78983EFE2A0
:10085000F0E089818083EEE2F0E08081881F8827C4
:10086000881F8130C1F70F90CF91DF910895DF93FA
:10087000CF93CDB7DEB7EEE2F0E08081881F882706
:10088000881F8130C1F7EFE2F0E08081CF91DF91E6
:100890000895DF93CF930F92CDB7DEB78983898117
:1008A000882F90E0009739F4A8E3B0E0E8E3F0E0A7
:1008B00080818F7E8C930F90CF91DF910895DF938D
:1008C000CF9300D0CDB7DEB71A821982EAE2F0E00A
:1008D00088E18083E0E4F0E086E8808387E690E0CA
:1008E0009A838983E9E2F0E089818083E0E4F0E0A3
:1008F00089819A81892F992780830F900F90CF91BA
:10090000DF910895DF93CF930F92CDB7DEB7898340
:10091000ECE2F0E089818083EBE2F0E08081829577
:10092000869586958370882F90E0817090700097EF
:1009300099F30F90CF91DF910895DF93CF93CDB7C7
:10094000DEB7EBE2F0E08081881F8827881F8130C6
:10095000C1F7ECE2F0E08081CF91DF910895DF9361
:10096000CF9300D0CDB7DEB79A838983EBE2F0E076
:100970008081881F8827881F8130C1F7ECE2F0E072
:100980008081E981FA81808381E00F900F90CF917F
:10099000DF910895DF93CF930F92CDB7DEB70E941A
:1009A0005F040E94FA0380E00E9449040E949D04B3
:0E09B000898389810E942104F9CFF894FFCF3A
:00000001FF
