:100000000C942A000C9447000C9447000C94470071
:100010000C9447000C9447000C9447000C94470044
:100020000C9447000C9447000C9447000C94470034
:100030000C9447000C9447000C9447000C94470024
:100040000C9447000C9447000C9447000C94470014
:100050000C94470011241FBECFE5D8E0DEBFCDBF12
:1000600010E0A0E6B0E0ECEEF9E202C005900D92DF
:10007000A239B107D9F710E0A2E9B0E001C01D92A2
:10008000A83AB107E1F70E94B0130C94F4140C9451
:100090000000EF92FF920F931F937B018C0120E0F1
:1000A00030E040E05FE40E94490388238CF0C801FF
:1000B000B70120E030E040E05FE40E94C1010E940F
:1000C000A9039B01AC01205030404040504806C07D
:1000D000C801B7010E94A9039B01AC01B901CA0183
:1000E0001F910F91FF90EF900895A0E0B0E0EBE733
:1000F000F0E00C94A414DC012B01FA019C919230E5
:1001000008F439C1EB018881823008F433C194309E
:1001100069F4843009F02FC111969C91119789815F
:10012000981709F428C1A0E6B0E025C1843009F48D
:1001300021C18230A9F4923009F01DC19A01AD01AC
:1001400088E0EA010990AE01E90109929E0181501F
:10015000C1F7E201898111969C918923818308C1AD
:10016000923009F407C112962D903C901397EB0141
:100170008A819B811496AD90BD90CD90DC901797AD
:10018000EC80FD800E811F819101281B390BB90184
:1001900037FF04C066277727621B730B6032710537
:1001A0000CF061C0121613066CF537014801062EDB
:1001B00004C096948794779467940A94D2F721E0C8
:1001C00030E040E050E004C0220F331F441F551FB1
:1001D0006A95D2F721503040404050402E213F21B7
:1001E00040235123211531054105510521F021E01E
:1001F00030E040E050E079018A01E628F72808293C
:1002000019293CC0232BD1F1260E371E350146019A
:10021000062E04C096948794779467940A94D2F734
:1002200021E030E040E050E004C0220F331F441FC3
:10023000551F6A95D2F721503040404050402A2146
:100240003B214C215D21211531054105510521F04E
:1002500021E030E040E050E059016A01A628B728CB
:10026000C828D9280BC0821593052CF01C01AA249C
:10027000BB24650103C0EE24FF24870111969C91E5
:10028000D20111968C91981709F445C0992339F041
:10029000A80197012A193B094C095D0906C0A6016E
:1002A00095012E193F09400B510B57FD08C01182D3
:1002B0003382228224833583468357831DC081E0A5
:1002C00081833382228288279927DC01821B930B4A
:1002D000A40BB50B84839583A683B7830DC0220F2F
:1002E000331F441F551F24833583468357838281E0
:1002F000938101979383828324813581468157813D
:10030000DA01C9010197A109B1098F5F9F4FAF4F72
:10031000BF4328F30BC0918333822282EA0CFB1C7B
:100320000C1D1D1DE482F5820683178383E0808304
:10033000248135814681578157FF1AC0C901AA27F8
:1003400097FDA095BA2F81709070A070B0705695EF
:10035000479537952795822B932BA42BB52B848318
:100360009583A683B7838281938101969383828349
:10037000DF0101C0D201CD01CDB7DEB7E2E10C94BF
:10038000C014A0E2B0E0E7ECF1E00C94B014698393
:100390007A838B839C832D833E834F835887E9E048
:1003A000EE2EF12CEC0EFD1ECE010196B7010E943F
:1003B000D2048E010F5E1F4FCE010596B8010E9438
:1003C000D2048A8991E089278A8BC701B801AE01DE
:1003D000475E5F4F0E9475000E94FD03A096E6E015
:1003E0000C94CC14A0E2B0E0E8EFF1E00C94B0146F
:1003F00069837A838B839C832D833E834F835887C5
:10040000F9E0EF2EF12CEC0EFD1ECE010196B701A6
:100410000E94D2048E010F5E1F4FCE010596B801D7
:100420000E94D204C701B801AE01475E5F4F0E942F
:1004300075000E94FD03A096E6E00C94CC14A0E2A7
:10044000B0E0E5E2F2E00C94A41469837A838B8334
:100450009C832D833E834F835887CE010196BE0136
:10046000675F7F4F0E94D204CE010596BE016F5E8A
:100470007F4F0E94D2049985923088F0898982301A
:10048000C8F0943019F4823051F404C0843029F457
:10049000923081F480E690E0C6C0923049F420E0CA
:1004A0009A858A89981321E02A87CE010996BBC0D4
:1004B000823049F420E09A858A89981321E02A8BBA
:1004C000CE014196B0C02D843E844F8458886D88FB
:1004D0007E888F88988CEE24FF248701AA24BB2471
:1004E000650140E050E060E070E0E0E0F0E0C10174
:1004F00081709070892BE9F0E60CF71C081D191D1E
:100500009A01AB012A0D3B1D4C1D5D1D80E090E062
:10051000A0E0B0E0E614F7040805190520F481E036
:1005200090E0A0E0B0E0BA01A901480F591F6A1F8E
:100530007B1FAA0CBB1CCC1CDD1C97FE08C081E0F5
:1005400090E0A0E0B0E0A82AB92ACA2ADB2A3196B6
:10055000E032F10549F0660C771C881C991C569412
:10056000479437942794C3CFFA85EA892B893C892D
:100570008B859C85280F391F2E5F3F4F17C0CA01FE
:1005800081709070892B61F016950795F794E79428
:1005900080E090E0A0E0B0E8E82AF92A0A2B1B2BC3
:1005A00076956795579547952F5F3F4F77FDE7CF36
:1005B0000CC0440F551F661F771F17FD4160EE0CDE
:1005C000FF1C001F111F21503040403090E05907A0
:1005D00090E0690790E4790760F32B8F3C8FDB0193
:1005E000CA018F779070A070B07080349105A1051A
:1005F000B10561F447FD0AC0E114F10401051105DC
:1006000029F0405C5F4F6F4F7F4F40781A8EFE1786
:1006100011F081E08A8F4D8F5E8F6F8F78A383E01A
:10062000898FCE0149960E94FD03A096E2E10C94C9
:10063000C014A8E1B0E0EFE1F3E00C94B0146983DA
:100640007A838B839C832D833E834F83588789E0F5
:10065000E82EF12CEC0EFD1ECE010196B7010E9492
:10066000D2048E010F5E1F4FCE010596B8010E9485
:10067000D2048985823040F08989823028F0C70110
:10068000B8010E944A0501C08FEF6896E6E00C941D
:10069000CC14A8E1B0E0EFE4F3E00C94B01469836B
:1006A0007A838B839C832D833E834F83588789E095
:1006B000E82EF12CEC0EFD1ECE010196B7010E9432
:1006C000D2048E010F5E1F4FCE010596B8010E9425
:1006D000D2048985823040F08989823028F0C701B0
:1006E000B8010E944A0501C08FEF6896E6E00C94BD
:1006F000CC14A8E1B0E0EFE7F3E00C94B014698308
:100700007A838B839C832D833E834F83588789E034
:10071000E82EF12CEC0EFD1ECE010196B7010E94D1
:10072000D2048E010F5E1F4FCE010596B8010E94C4
:10073000D2048985823040F08989823028F0C7014F
:10074000B8010E944A0501C081E06896E6E00C9479
:10075000CC14ACE0B0E0EFEAF3E00C94B41469839D
:100760007A838B839C83CE010196BE016B5F7F4FA2
:100770000E94D2048D81823061F1823050F1843048
:1007800021F48E81882351F12EC02F81388537FDC9
:1007900020C06E812F3131051CF06623F9F023C093
:1007A0008EE190E0821B930B29853A854B855C8511
:1007B00004C056954795379527958A95D2F76623B5
:1007C000B1F050954095309521953F4F4F4F5F4F79
:1007D0000EC020E030E040E050E009C02FEF3FEFD6
:1007E0004FEF5FE704C020E030E040E050E8B9019F
:1007F000CA012C96E2E00C94D014DF92EF92FF92A3
:100800000F931F93FC01E480F58006811781D1804E
:100810008081823048F480E090E0A0E1B0E0E82AF6
:10082000F92A0A2B1B2BA5C0843009F49FC0823003
:1008300021F4EE24FF24870105C0E114F104010531
:10084000110519F4E0E0F0E096C0628173819FEF3A
:10085000623879070CF05BC022E83FEF261B370BAC
:100860002A3131052CF020E030E040E050E02AC091
:10087000B801A701022E04C0769567955795479554
:100880000A94D2F781E090E0A0E0B0E004C0880FC5
:10089000991FAA1FBB1F2A95D2F70197A109B10979
:1008A0008E219F21A023B1230097A105B10521F03E
:1008B00081E090E0A0E0B0E09A01AB01282B392B59
:1008C0004A2B5B2BDA01C9018F779070A070B07052
:1008D00080349105A105B10539F427FF09C0205CDA
:1008E0003F4F4F4F5F4F04C0215C3F4F4F4F5F4F13
:1008F000E0E0F0E02030A0E03A07A0E04A07A0E402
:100900005A0710F0E1E0F0E079018A0127C0603871
:10091000710564F5FB01E158FF4FD801C7018F77DE
:100920009070A070B07080349105A105B10539F4C4
:10093000E7FE0DC080E490E0A0E0B0E004C08FE3EB
:1009400090E0A0E0B0E0E80EF91E0A1F1B1F17FFA1
:1009500005C016950795F794E794319687E01695AC
:100960000795F794E7948A95D1F705C0EE24FF2404
:100970008701EFEFF0E06E2F679566276795902F60
:100980009F77D794DD24D7948E2F8695492F462BB9
:10099000582F5D29B701CA011F910F91FF90EF9069
:1009A000DF900895FC01DB01408151812281622F9B
:1009B0006F7770E0221F2227221F9381892F880FD3
:1009C000822B282F30E0991F9927991F11969C930D
:1009D000119721153105A9F54115510561057105DD
:1009E00011F482E037C082E89FEF13969C938E93B8
:1009F00012979A01AB0167E0220F331F441F551F66
:100A00006A95D1F783E08C930DC0220F331F441FEA
:100A1000551F12968D919C911397019713969C9355
:100A20008E931297203080E0380780E0480780E4FA
:100A3000580758F314962D933D934D935C93179755
:100A400008952F3F310579F4411551056105710570
:100A500019F484E08C93089564FF03C081E08C93C3
:100A600012C01C9210C02F57304013963C932E9307
:100A7000129783E08C9387E0440F551F661F771F02
:100A80008A95D1F7706414964D935D936D937C9322
:100A9000179708951F93DC01FB019C91923008F495
:100AA00047C08081823008F443C0943051F41196DD
:100AB0001C91843099F58181682F70E0611B710968
:100AC0003FC0843021F0923031F48230B9F181811D
:100AD000882389F12DC011961C9111978230F1F075
:100AE00081811817D9F412962D913C911397828128
:100AF00093818217930794F028173907BCF0149656
:100B00008D919D910D90BC91A02D248135814681C0
:100B10005781281739074A075B0718F4112341F05A
:100B20000AC082179307A407B50740F4112319F0F0
:100B300061E070E005C06FEF7FEF02C060E070E041
:100B4000CB011F910895DF93CF9300D000D0CDB794
:100B5000DEB789836A838981282F30E03C832B8329
:100B60008B819C8181309105D1F02B813C81223099
:100B700031052CF48B819C81009761F01EC02B8184
:100B80003C812230310581F08B819C81833091053D
:100B900081F013C0EAE3F0E08A8180830EC0E7E3CE
:100BA000F0E08A81808309C0E4E3F0E08A818083F9
:100BB00004C0E1E3F0E08A8180830F900F900F90F2
:100BC0000F90CF91DF910895DF93CF9300D000D0A5
:100BD0000F92CDB7DEB789836A834B838981282F33
:100BE00030E03D832C836C817D8161307105D1F1D2
:100BF0008C819D818230910534F42C813D812115B9
:100C0000310571F094C06C817D816230710509F409
:100C10004BC08C819D818330910509F467C087C0EA
:100C2000AAE3B0E0EAE3F0E08081482F8A81282F30
:100C300030E081E090E002C0880F991F2A95E2F72A
:100C4000809548238B81282F30E08A81882F90E07F
:100C5000B90102C0660F771F8A95E2F7CB01842B9A
:100C60008C9365C0A7E3B0E0E7E3F0E08081482F14
:100C70008A81282F30E081E090E002C0880F991F20
:100C80002A95E2F7809548238B81282F30E08A81CE
:100C9000882F90E0B90102C0660F771F8A95E2F7AE
:100CA000CB01842B8C9343C0A4E3B0E0E4E3F0E0F9
:100CB0008081482F8A81282F30E081E090E002C0B7
:100CC000880F991F2A95E2F7809548238B81282F5A
:100CD00030E08A81882F90E0B90102C0660F771F4B
:100CE0008A95E2F7CB01842B8C9321C0A1E3B0E07D
:100CF000E1E3F0E08081482F8A81282F30E081E015
:100D000090E002C0880F991F2A95E2F7809548234A
:100D10008B81282F30E08A81882F90E0B90102C0B2
:100D2000660F771F8A95E2F7CB01842B8C930F9087
:100D30000F900F900F900F90CF91DF910895DF9358
:100D4000CF9300D000D0CDB7DEB789836A83898185
:100D5000282F30E03C832B838B819C81813091054F
:100D6000D1F02B813C81223031052CF48B819C8188
:100D7000009761F01EC02B813C812230310581F04B
:100D80008B819C818330910581F013C0EBE3F0E00F
:100D90008A8180830EC0E8E3F0E08A81808309C005
:100DA000E5E3F0E08A81808304C0E2E3F0E08A8139
:100DB00080830F900F900F900F90CF91DF91089547
:100DC000DF93CF9300D000D00F92CDB7DEB78983E9
:100DD0006A834B838981282F30E03D832C836C818B
:100DE0007D8161307105D1F18C819D8182309105C9
:100DF00034F42C813D812115310571F094C06C8152
:100E00007D816230710509F44BC08C819D818330F6
:100E1000910509F467C087C0ABE3B0E0EBE3F0E015
:100E20008081482F8A81282F30E081E090E002C045
:100E3000880F991F2A95E2F7809548238B81282FE8
:100E400030E08A81882F90E0B90102C0660F771FD9
:100E50008A95E2F7CB01842B8C9365C0A8E3B0E0C0
:100E6000E8E3F0E08081482F8A81282F30E081E09C
:100E700090E002C0880F991F2A95E2F780954823D9
:100E80008B81282F30E08A81882F90E0B90102C041
:100E9000660F771F8A95E2F7CB01842B8C9343C0B2
:100EA000A8E3B0E0E8E3F0E08081482F8A81282FB2
:100EB00030E081E090E002C0880F991F2A95E2F7A8
:100EC000809548238B81282F30E08A81882F90E0FD
:100ED000B90102C0660F771F8A95E2F7CB01842B18
:100EE0008C9321C0A8E3B0E0E8E3F0E08081482FD4
:100EF0008A81282F30E081E090E002C0880F991F9E
:100F00002A95E2F7809548238B81282F30E08A814B
:100F1000882F90E0B90102C0660F771F8A95E2F72B
:100F2000CB01842B8C930F900F900F900F900F900C
:100F3000CF91DF910895DF93CF9300D000D00F922F
:100F4000CDB7DEB789837B836A838981282F30E020
:100F50003D832C838C819D8181309105E1F02C8132
:100F60003D81223031052CF48C819D81009761F008
:100F700026C02C813D8122303105A1F08C819D81DC
:100F800083309105B1F01BC0E9E3F0E08081EA8194
:100F9000FB81808314C0E6E3F0E08081EA81FB817D
:100FA00080830DC0E3E3F0E08081EA81FB818083F0
:100FB00006C0E0E3F0E08081EA81FB8180830F904E
:100FC0000F900F900F900F90CF91DF910895DF93C6
:100FD000CF9300D000D000D0CDB7DEB789836A832D
:100FE0005C834B838981282F30E03E832D834D81A4
:100FF0005E814130510559F18D819E81823091058C
:1010000034F42D813E812115310569F05BC04D819D
:101010005E814230510579F18D819E818330910549
:1010200009F43DC04FC0E9E3F0E08081282F30E0B3
:101030008A81882F90E0A90102C0559547958A952D
:10104000E2F7CA018170EB81FC8180833BC0E6E35B
:10105000F0E08081282F30E08A81882F90E0A9017C
:1010600002C0559547958A95E2F7CA018170EB81D8
:10107000FC81808327C0E3E3F0E08081282F30E00B
:101080008A81882F90E0A90102C0559547958A95DD
:10109000E2F7CA018170EB81FC81808313C0E0E339
:1010A000F0E08081282F30E08A81882F90E0A9012C
:1010B00002C0559547958A95E2F7CA018170EB8188
:1010C000FC81808326960FB6F894DEBF0FBECDBF9D
:1010D000CF91DF910895DF93CF9300D000D0CDB7AB
:1010E000DEB789836A838981282F30E03C832B8394
:1010F0008B819C8181309105D1F02B813C81223004
:1011000031052CF48B819C81009761F01EC02B81EE
:101110003C812230310581F08B819C8183309105A7
:1011200081F013C0EBE3F0E08A8180830EC0E8E336
:10113000F0E08A81808309C0E5E3F0E08A81808362
:1011400004C0E2E3F0E08A8180830F900F900F905B
:101150000F90CF91DF910895DF93CF9300D000D00F
:101160000F92CDB7DEB789836A834B838981282F9D
:1011700030E03D832C836C817D8161307105D1F13C
:101180008C819D818230910534F42C813D81211523
:10119000310571F094C06C817D816230710509F474
:1011A0004BC08C819D818330910509F467C087C055
:1011B000ABE3B0E0EBE3F0E08081482F8A81282F99
:1011C00030E081E090E002C0880F991F2A95E2F795
:1011D000809548238B81282F30E08A81882F90E0EA
:1011E000B90102C0660F771F8A95E2F7CB01842B05
:1011F0008C9365C0A8E3B0E0E8E3F0E08081482F7D
:101200008A81282F30E081E090E002C0880F991F8A
:101210002A95E2F7809548238B81282F30E08A8138
:10122000882F90E0B90102C0660F771F8A95E2F718
:10123000CB01842B8C9343C0A8E3B0E0E8E3F0E05B
:101240008081482F8A81282F30E081E090E002C021
:10125000880F991F2A95E2F7809548238B81282FC4
:1012600030E08A81882F90E0B90102C0660F771FB5
:101270008A95E2F7CB01842B8C9321C0A8E3B0E0E0
:10128000E8E3F0E08081482F8A81282F30E081E078
:1012900090E002C0880F991F2A95E2F780954823B5
:1012A0008B81282F30E08A81882F90E0B90102C01D
:1012B000660F771F8A95E2F7CB01842B8C930F90F2
:1012C0000F900F900F900F90CF91DF910895DF93C3
:1012D000CF93CDB7DEB7AC970FB6F894DEBF0FBE95
:1012E000CDBF9CA78BA781E063E040E00E94E006B1
:1012F00081E061E041E00E94E00681E062E041E0DF
:101300000E94E00680E090E0A0EAB1E48FA398A7F5
:10131000A9A7BAA76FA178A589A59AA520E030E072
:101320004AE755E40E941F02DC01CB018BA39CA37A
:10133000ADA3BEA36BA17CA18DA19EA120E030E056
:1013400040E85FE30E94790388232CF481E090E079
:101350009AA389A33FC06BA17CA18DA19EA120E08F
:101360003FEF4FE757E40E94190318164CF56FA1A1
:1013700078A589A59AA520E030E040E251E40E94DA
:101380001F02DC01CB01BC01CD010E944900DC0140
:10139000CB019AA389A30FC080E991E098A38F8F16
:1013A0008F8D98A10197F1F798A38F8F89A19AA1AA
:1013B00001979AA389A389A19AA1009769F714C0FC
:1013C0006BA17CA18DA19EA10E944900DC01CB01F3
:1013D0009AA389A389A19AA19E8F8D8F8D8D9E8DB1
:1013E0000197F1F79E8F8D8F2BA53CA582E0B90167
:1013F0000E949B0780E090E0A0EAB1E4898F9A8F79
:10140000AB8FBC8F698D7A8D8B8D9C8D20E030E009
:101410004AE755E40E941F02DC01CB018D8B9E8BB5
:10142000AF8BB88F6D897E898F89988D20E030E0F1
:1014300040E85FE30E94790388232CF481E090E088
:101440009C8B8B8B3FC06D897E898F89988D20E026
:101450003FEF4FE757E40E94190318164CF5698DCA
:101460007A8D8B8D9C8D20E030E040E251E40E942B
:101470001F02DC01CB01BC01CD010E944900DC014F
:10148000CB019C8B8B8B0FC080E991E09A8B898B71
:1014900089899A890197F1F79A8B898B8B899C8925
:1014A00001979C8B8B8B8B899C89009769F714C063
:1014B0006D897E898F89988D0E944900DC01CB015E
:1014C0009C8B8B8B8B899C89988B8F878F85988938
:1014D0000197F1F7988B8F8781E063E041E00E94EC
:1014E000E00680E090E0A0EAB1E48B879C87AD87BE
:1014F000BE876B857C858D859E8520E030E04AE740
:1015000055E40E941F02DC01CB018F839887A987D5
:10151000BA876F81788589859A8520E030E040E838
:101520005FE30E94790388232CF481E090E09E839E
:101530008D833FC06F81788589859A8520E03FEF54
:101540004FE757E40E94190318164CF56B857C850C
:101550008D859E8520E030E040E251E40E941F022C
:10156000DC01CB01BC01CD010E944900DC01CB01B3
:101570009E838D830FC080E991E09C838B838B8158
:101580009C810197F1F79C838B838D819E810197CC
:101590009E838D838D819E81009769F714C06F8132
:1015A000788589859A850E944900DC01CB019E835C
:1015B0008D838D819E819A83898389819A81019708
:1015C000F1F79A83898381E063E040E00E94E006BE
:1015D000AC960FB6F894DEBF0FBECDBFCF91DF91B2
:1015E0000895DF93CF93CDB7DEB7E9970FB6F894A0
:1015F000DEBF0FBECDBF89AF81E063E040E00E9457
:10160000E00681E061E040E00E94E00681E062E007
:1016100040E00E94E006A5E3B0E089AD982F907FFE
:10162000E5E3F0E080818F70892B8C9381E063E0AB
:1016300041E00E94E00680E090E0A0E0B0E48DABE5
:101640009EABAFABB8AF6DA97EA98FA998AD20E0D6
:1016500030E04AE755E40E941F02DC01CB0189AB70
:101660009AABABABBCAB69A97AA98BA99CA920E0CA
:1016700030E040E85FE30E94790388232CF481E0A6
:1016800090E098AB8FA73FC069A97AA98BA99CA9C4
:1016900020E03FEF4FE757E40E94190318164CF57E
:1016A0006DA97EA98FA998AD20E030E040E251E419
:1016B0000E941F02DC01CB01BC01CD010E94490048
:1016C000DC01CB0198AB8FA70FC080E991E09EA70A
:1016D0008DA78DA59EA50197F1F79EA78DA78FA534
:1016E00098A9019798AB8FA78FA598A9009769F73C
:1016F00014C069A97AA98BA99CA90E944900DC01A0
:10170000CB0198AB8FA78FA598A99CA78BA78BA57A
:101710009CA50197F1F79CA78BA781E063E040E0CF
:101720000E94E00680E090E0A0E0B0E48FA398A7DC
:10173000A9A7BAA76FA178A589A59AA520E030E04E
:101740004AE755E40E941F02DC01CB018BA39CA356
:10175000ADA3BEA36BA17CA18DA19EA120E030E032
:1017600040E85FE30E94790388232CF481E090E055
:101770009AA389A33FC06BA17CA18DA19EA120E06B
:101780003FEF4FE757E40E94190318164CF56FA17D
:1017900078A589A59AA520E030E040E251E40E94B6
:1017A0001F02DC01CB01BC01CD010E944900DC011C
:1017B000CB019AA389A30FC080E991E098A38F8FF2
:1017C0008F8D98A10197F1F798A38F8F89A19AA186
:1017D00001979AA389A389A19AA1009769F714C0D8
:1017E0006BA17CA18DA19EA10E944900DC01CB01CF
:1017F0009AA389A389A19AA19E8F8D8F8D8D9E8D8D
:101800000197F1F79E8F8D8F81E063E040E00E94A9
:10181000E00681E061E040E00E94E00681E062E0F5
:1018200040E00E94E006A5E3B0E089AD882F90E09B
:1018300082959295907F9827807F9827982FE5E34F
:10184000F0E080818F70892B8C9381E063E041E030
:101850000E94E00680E090E0A0E0B0E4898F9A8FDB
:10186000AB8FBC8F698D7A8D8B8D9C8D20E030E0A5
:101870004AE755E40E941F02DC01CB018D8B9E8B51
:10188000AF8BB88F6D897E898F89988D20E030E08D
:1018900040E85FE30E94790388232CF481E090E024
:1018A0009C8B8B8B3FC06D897E898F89988D20E0C2
:1018B0003FEF4FE757E40E94190318164CF5698D66
:1018C0007A8D8B8D9C8D20E030E040E251E40E94C7
:1018D0001F02DC01CB01BC01CD010E944900DC01EB
:1018E000CB019C8B8B8B0FC080E991E09A8B898B0D
:1018F00089899A890197F1F79A8B898B8B899C89C1
:1019000001979C8B8B8B8B899C89009769F714C0FE
:101910006D897E898F89988D0E944900DC01CB01F9
:101920009C8B8B8B8B899C89988B8F878F859889D3
:101930000197F1F7988B8F8781E063E040E00E9488
:10194000E00680E090E0A0E0B0E48B879C87AD8764
:10195000BE876B857C858D859E8520E030E04AE7DB
:1019600055E40E941F02DC01CB018F839887A98771
:10197000BA876F81788589859A8520E030E040E8D4
:101980005FE30E94790388232CF481E090E09E833A
:101990008D833FC06F81788589859A8520E03FEFF0
:1019A0004FE757E40E94190318164CF56B857C85A8
:1019B0008D859E8520E030E040E251E40E941F02C8
:1019C000DC01CB01BC01CD010E944900DC01CB014F
:1019D0009E838D830FC080E991E09C838B838B81F4
:1019E0009C810197F1F79C838B838D819E81019768
:1019F0009E838D838D819E81009769F714C06F81CE
:101A0000788589859A850E944900DC01CB019E83F7
:101A10008D838D819E819A83898389819A810197A3
:101A2000F1F79A838983E9960FB6F894DEBF0FBE6B
:101A3000CDBFCF91DF910895DF93CF93CDB7DEB7C0
:101A4000E9970FB6F894DEBF0FBECDBF89AF81E036
:101A500063E040E00E94E00681E061E041E00E9436
:101A6000E00681E062E040E00E94E006A5E3B0E02D
:101A700089AD982F907FE5E3F0E080818F70892B0E
:101A80008C9381E063E041E00E94E00680E090E01A
:101A9000A0E0B0E48DAB9EABAFABB8AF6DA97EA9B3
:101AA0008FA998AD20E030E04AE755E40E941F027C
:101AB000DC01CB0189AB9AABABABBCAB69A97AA912
:101AC0008BA99CA920E030E040E85FE30E94790305
:101AD00088232CF481E090E098AB8FA73FC069A9E0
:101AE0007AA98BA99CA920E03FEF4FE757E40E9419
:101AF000190318164CF56DA97EA98FA998AD20E0A1
:101B000030E040E251E40E941F02DC01CB01BC0145
:101B1000CD010E944900DC01CB0198AB8FA70FC01B
:101B200080E991E09EA78DA78DA59EA50197F1F76D
:101B30009EA78DA78FA598A9019798AB8FA78FA572
:101B400098A9009769F714C069A97AA98BA99CA9DB
:101B50000E944900DC01CB0198AB8FA78FA598A903
:101B60009CA78BA78BA59CA50197F1F79CA78BA79A
:101B700081E063E040E00E94E00680E090E0A0E0C9
:101B8000B0E48FA398A7A9A7BAA76FA178A589A544
:101B90009AA520E030E04AE755E40E941F02DC01EC
:101BA000CB018BA39CA3ADA3BEA36BA17CA18DA1F4
:101BB0009EA120E030E040E85FE30E9479038823A3
:101BC0002CF481E090E09AA389A33FC06BA17CA193
:101BD0008DA19EA120E03FEF4FE757E40E9419033B
:101BE00018164CF56FA178A589A59AA520E030E0DC
:101BF00040E251E40E941F02DC01CB01BC01CD0197
:101C00000E944900DC01CB019AA389A30FC080E99F
:101C100091E098A38F8F8F8D98A10197F1F798A3EA
:101C20008F8F89A19AA101979AA389A389A19AA1CB
:101C3000009769F714C06BA17CA18DA19EA10E94A1
:101C40004900DC01CB019AA389A389A19AA19E8FA7
:101C50008D8F8D8D9E8D0197F1F79E8F8D8F81E0F9
:101C600063E040E00E94E00681E061E041E00E9424
:101C7000E00681E062E040E00E94E006A5E3B0E01B
:101C800089AD882F90E082959295907F9827807FEC
:101C90009827982FE5E3F0E080818F70892B8C9353
:101CA00081E063E041E00E94E00680E090E0A0E097
:101CB000B0E4898F9A8FAB8FBC8F698D7A8D8B8DB5
:101CC0009C8D20E030E04AE755E40E941F02DC01D1
:101CD000CB018D8B9E8BAF8BB88F6D897E898F8961
:101CE000988D20E030E040E85FE30E94790388238C
:101CF0002CF481E090E09C8B8B8B3FC06D897E89BA
:101D00008F89988D20E03FEF4FE757E40E94190339
:101D100018164CF5698D7A8D8B8D9C8D20E030E006
:101D200040E251E40E941F02DC01CB01BC01CD0165
:101D30000E944900DC01CB019C8B8B8B0FC080E99A
:101D400091E09A8B898B89899A890197F1F79A8B0F
:101D5000898B8B899C8901979C8B8B8B8B899C8928
:101D6000009769F714C06D897E898F89988D0E94CC
:101D70004900DC01CB019C8B8B8B8B899C89988BD8
:101D80008F878F8598890197F1F7988B8F8781E0EE
:101D900063E040E00E94E00680E090E0A0E0B0E474
:101DA0008B879C87AD87BE876B857C858D859E855F
:101DB00020E030E04AE755E40E941F02DC01CB013D
:101DC0008F839887A987BA876F81788589859A8557
:101DD00020E030E040E85FE30E94790388232CF4A0
:101DE00081E090E09E838D833FC06F8178858985F7
:101DF0009A8520E03FEF4FE757E40E941903181639
:101E00004CF56B857C858D859E8520E030E040E239
:101E100051E40E941F02DC01CB01BC01CD010E94F4
:101E20004900DC01CB019E838D830FC080E991E0E6
:101E30009C838B838B819C810197F1F79C838B839F
:101E40008D819E8101979E838D838D819E810097D8
:101E500069F714C06F81788589859A850E94490049
:101E6000DC01CB019E838D838D819E819A83898342
:101E700089819A810197F1F79A838983E9960FB650
:101E8000F894DEBF0FBECDBFCF91DF9108950F93C1
:101E90001F93DF93CF93CDB7DEB7C455D0400FB6B5
:101EA000F894DEBF0FBECDBF81E063E041E00E9449
:101EB000E40581E061E041E00E94E40581E062E048
:101EC00041E00E94E405A4E3B0E0E4E3F0E08081B7
:101ED000806F8C93FE01EF5AFF4F80E090E0A0EFFF
:101EE000B1E480839183A283B3838E01035B1F4F90
:101EF000FE01EF5AFF4F608171818281938120E062
:101F000030E04AE755E40E941F02DC01CB01F801F2
:101F100080839183A283B383FE01E35BFF4F6081E3
:101F200071818281938120E030E040E85FE30E948C
:101F30007903882344F4FE01E55BFF4F81E090E0E4
:101F40009183808364C0FE01E35BFF4F60817181F8
:101F50008281938120E03FEF4FE757E40E9419030D
:101F600018160CF043C0FE01EF5AFF4F60817181DB
:101F70008281938120E030E040E251E40E941F0220
:101F8000DC01CB018E01055B1F4FBC01CD010E941E
:101F90004900DC01CB01F801918380831FC0FE0161
:101FA000E75BFF4F80E991E091838083FE01E75B6F
:101FB000FF4F808191810197F1F7FE01E75BFF4FB1
:101FC00091838083DE01A55BBF4FFE01E55BFF4F80
:101FD00080819181019711969C938E93FE01E55B20
:101FE000FF4F808191810097D1F627C08E01055B5C
:101FF0001F4FFE01E35BFF4F6081718182819381FE
:102000000E944900DC01CB01F80191838083DE014D
:10201000A95BBF4FFE01E55BFF4F808191818D93EE
:102020009C93FE01E95BFF4F808191810197F1F75D
:10203000FE01E95BFF4F9183808383E30E94F10AF5
:10204000FE01ED5BFF4F80E090E0A0E0B0E4808314
:102050009183A283B3838E01015C1F4FFE01ED5B70
:10206000FF4F608171818281938120E030E04AE7F7
:1020700055E40E941F02DC01CB01F80180839183AB
:10208000A283B383FE01FF96608171818281938177
:1020900020E030E040E85FE30E94790388232CF4DD
:1020A00081E090E09EAF8DAF46C0FE01FF9660815B
:1020B00071818281938120E03FEF4FE757E40E94D6
:1020C0001903181664F5FE01ED5BFF4F6081718105
:1020D0008281938120E030E040E251E40E941F02BF
:1020E000DC01CB01BC01CD010E944900DC01CB0128
:1020F0009EAF8DAF0FC080E991E09CAF8BAF8BADF1
:102100009CAD0197F1F79CAF8BAF8DAD9EAD019764
:102110009EAF8DAF8DAD9EAD009769F716C0FE01E5
:10212000FF9660817181828193810E944900DC0168
:10213000CB019EAF8DAF8DAD9EAD9AAF89AF89AD0E
:102140009AAD0197F1F79AAF89AF82E30E94F10A45
:1021500080E090E0A0E0B0E48DAB9EABAFABB8AF59
:102160006DA97EA98FA998AD20E030E04AE755E43B
:102170000E941F02DC01CB0189AB9AABABABBCABBD
:1021800069A97AA98BA99CA920E030E040E85FE327
:102190000E94790388232CF481E090E098AB8FA70C
:1021A0003FC069A97AA98BA99CA920E03FEF4FE71E
:1021B00057E40E94190318164CF56DA97EA98FA942
:1021C00098AD20E030E040E251E40E941F02DC01C3
:1021D000CB01BC01CD010E944900DC01CB0198ABD1
:1021E0008FA70FC080E991E09EA78DA78DA59EA522
:1021F0000197F1F79EA78DA78FA598A9019798AB96
:102200008FA78FA598A9009769F714C069A97AA923
:102210008BA99CA90E944900DC01CB0198AB8FA738
:102220008FA598A99CA78BA78BA59CA50197F1F7D3
:102230009CA78BA78CE20E94F10A80E090E0A0E0CE
:10224000B0E48FA398A7A9A7BAA76FA178A589A57D
:102250009AA520E030E04AE755E40E941F02DC0125
:10226000CB018BA39CA3ADA3BEA36BA17CA18DA12D
:102270009EA120E030E040E85FE30E9479038823DC
:102280002CF481E090E09AA389A33FC06BA17CA1CC
:102290008DA19EA120E03FEF4FE757E40E94190374
:1022A00018164CF56FA178A589A59AA520E030E015
:1022B00040E251E40E941F02DC01CB01BC01CD01D0
:1022C0000E944900DC01CB019AA389A30FC080E9D9
:1022D00091E098A38F8F8F8D98A10197F1F798A324
:1022E0008F8F89A19AA101979AA389A389A19AA105
:1022F000009769F714C06BA17CA18DA19EA10E94DB
:102300004900DC01CB019AA389A389A19AA19E8FE0
:102310008D8F8D8D9E8D0197F1F79E8F8D8F8FE024
:102320000E94F10A80E090E0A0E0B0E4898F9A8FEB
:10233000AB8FBC8F698D7A8D8B8D9C8D20E030E0CA
:102340004AE755E40E941F02DC01CB018D8B9E8B76
:10235000AF8BB88F6D897E898F89988D20E030E0B2
:1023600040E85FE30E94790388232CF481E090E049
:102370009C8B8B8B3FC06D897E898F89988D20E0E7
:102380003FEF4FE757E40E94190318164CF5698D8B
:102390007A8D8B8D9C8D20E030E040E251E40E94EC
:1023A0001F02DC01CB01BC01CD010E944900DC0110
:1023B000CB019C8B8B8B0FC080E991E09A8B898B32
:1023C00089899A890197F1F79A8B898B8B899C89E6
:1023D00001979C8B8B8B8B899C89009769F714C024
:1023E0006D897E898F89988D0E944900DC01CB011F
:1023F0009C8B8B8B8B899C89988B8F878F859889F9
:102400000197F1F7988B8F8781E00E94F10A80E0B5
:1024100090E0A0E0B0E48B879C87AD87BE876B859A
:102420007C858D859E8520E030E04AE755E40E945A
:102430001F02DC01CB018F839887A987BA876F8140
:10244000788589859A8520E030E040E85FE30E9446
:10245000790388232CF481E090E09E838D833FC034
:102460006F81788589859A8520E03FEF4FE757E4B3
:102470000E94190318164CF56B857C858D859E8509
:1024800020E030E040E251E40E941F02DC01CB0179
:10249000BC01CD010E944900DC01CB019E838D83EC
:1024A0000FC080E991E09C838B838B819C81019795
:1024B000F1F79C838B838D819E8101979E838D8311
:1024C0008D819E81009769F714C06F817885898519
:1024D0009A850E944900DC01CB019E838D838D810A
:1024E0009E819A83898389819A810197F1F79A83E2
:1024F0008983CC5ADF4F0FB6F894DEBF0FBECDBF35
:10250000CF91DF911F910F910895DF93CF9300D06A
:1025100000D0CDB7DEB789836A834B832C83898152
:102520006A810E94D71287E00E94A1128B816C8180
:102530000E94D7120F900F900F900F90CF91DF91C4
:102540000895DF93CF930F92CDB7DEB7898389814A
:102550000E941C0D0F90CF91DF910895DF93CF93D0
:1025600000D00F92CDB7DEB79B838A8319820EC04D
:102570008981282F30E08A819B81FC01E20FF31FC3
:1025800080810E941C0D89818F5F89838981282F1A
:1025900030E08A819B81FC01E20FF31F8081882358
:1025A00039F70F900F900F90CF91DF910895DF933F
:1025B000CF9300D0CDB7DEB789836A838981882F16
:1025C00090E00296002496958795079496958795B6
:1025D0000794982F802D982F8A81890F0E94F10AE5
:1025E0000F900F90CF91DF910895DF93CF9300D09C
:1025F00000D000D0CDB7DEB79B838A836C834D8338
:102600002E838C81882F90E00896880F991F880F61
:10261000991F880F991F0E94F10A19820EC08981A3
:10262000282F30E08A819B81FC01E20FF31F80811B
:102630000E941C0D89818F5F89838981883078F39E
:102640008D816E810E94D71226960FB6F894DEBF58
:102650000FBECDBFCF91DF910895DF93CF9300D010
:10266000CDB7DEB789836A838A81882F90E0002402
:10267000969587950794969587950794982F802D22
:10268000982F8981890F80580E94F10A0F900F902E
:10269000CF91DF910895DF93CF93CDB7DEB7A7E356
:1026A000B0E0E7E3F0E080818F7D8C93A7E3B0E0BA
:1026B000E7E3F0E0808180648C93A7E3B0E0E7E398
:1026C000F0E080818F778C93A7E3B0E0E7E3F0E060
:1026D00080818F7E8C93EDE2F0E083E48083CF9164
:1026E000DF910895DF93CF930F92CDB7DEB7898343
:1026F000EFE2F0E089818083EEE2F0E08081881FE4
:102700008827881F8130C1F70F90CF91DF910895FE
:10271000DF93CF93CDB7DEB7EEE2F0E08081881F84
:102720008827881F8130C1F7EFE2F0E08081CF91E8
:10273000DF910895DF93CF930F92CDB7DEB78983F2
:102740008981882F90E0009739F4A8E3B0E0E8E3AE
:10275000F0E080818F7E8C930F90CF91DF91089570
:10276000DF93CF93CDB7DEB70E94470F0E944B1384
:1027700080E06FEF0E94A3050E9488138093A7005A
:1027800080919200882F90E02091A700FC01ED56E7
:10279000FF4F2083809192008F5F809392000E9470
:1027A000D4130E944614E8CFDF93CF93CDB7DEB7A2
:1027B00088E690E023E930E0B9010E94E214009736
:1027C00011F580E060E041E00E94E00680E062E018
:1027D00041E00E94E00680E063E041E00E94E00604
:1027E00083E990E00E94AE1283E990E00E94EB142E
:1027F0009C0183E990E060E070E0A9010E94DB1495
:102800001092920040C082E790E023E930E0B901E5
:102810000E94E214009711F580E060E040E00E9421
:10282000E00680E062E040E00E94E00680E063E0D5
:1028300040E00E94E00683E990E00E94AE1283E946
:1028400090E00E94EB149C0183E990E060E070E06E
:10285000A9010E94DB141092920015C08091A7007C
:10286000833689F481E00E94F10A83E990E00E94B6
:10287000EB149C0183E990E060E070E0A9010E9404
:10288000DB1410929200CF91DF910895DF93CF93E4
:10289000CDB7DEB783E990E02DE730E0B9010E94C3
:1028A000E2140097C1F480E061E041E00E94E0069C
:1028B00083E990E00E94AE1283E990E00E94EB145D
:1028C0009C0183E990E060E070E0A9010E94DB14C4
:1028D0001092920036C083E990E027E830E0B90119
:1028E0000E94E2140097C1F480E061E040E00E94A1
:1028F000E00683E990E00E94AE1283E990E00E9436
:10290000EB149C0183E990E060E070E0A9010E9473
:10291000DB141092920015C08091A700833689F4D1
:1029200081E00E94F10A83E990E00E94EB149C018F
:1029300083E990E060E070E0A9010E94DB1410924E
:102940009200CF91DF9108952F923F924F925F9224
:102950006F927F928F929F92AF92BF92CF92DF92AF
:10296000EF92FF920F931F93CF93DF93CDB7DEB714
:10297000CA1BDB0B0FB6F894DEBF0FBECDBF0994A8
:102980002A88398848885F846E847D848C849B84FF
:10299000AA84B984C884DF80EE80FD800C811B810D
:1029A000AA81B981CE0FD11D0FB6F894DEBF0FBE3C
:1029B000CDBFED010895DC0101C06D934150504041
:1029C000E0F70895FB01DC018D9101908019011061
:1029D000D9F3990B0895FC0101900020E9F7809547
:0C29E00090958E0F9F1F0895F894FFCF74
:1029EC0000000000000000006C6967687473206FC1
:1029FC006E006C6967687473206F66660066616E42
:102A0C00206F6E0000000066616E206F666600002D
:022A1C000000B8
:00000001FF
